{
	"tac/oracle.sol": {
		"TreasurySwap": {
			"abi": [
				{
					"inputs": [],
					"stateMutability": "nonpayable",
					"type": "constructor"
				},
				{
					"anonymous": false,
					"inputs": [
						{
							"indexed": false,
							"internalType": "uint256",
							"name": "price",
							"type": "uint256"
						},
						{
							"indexed": false,
							"internalType": "uint256",
							"name": "timestamp",
							"type": "uint256"
						}
					],
					"name": "PriceFetched",
					"type": "event"
				},
				{
					"inputs": [],
					"name": "BTC_ASSET_ID",
					"outputs": [
						{
							"internalType": "bytes32",
							"name": "",
							"type": "bytes32"
						}
					],
					"stateMutability": "view",
					"type": "function"
				},
				{
					"inputs": [],
					"name": "decimals",
					"outputs": [
						{
							"internalType": "uint8",
							"name": "",
							"type": "uint8"
						}
					],
					"stateMutability": "view",
					"type": "function"
				},
				{
					"inputs": [],
					"name": "getTokenValue",
					"outputs": [
						{
							"internalType": "uint256",
							"name": "",
							"type": "uint256"
						}
					],
					"stateMutability": "view",
					"type": "function"
				},
				{
					"inputs": [],
					"name": "storkOracle",
					"outputs": [
						{
							"internalType": "address",
							"name": "",
							"type": "address"
						}
					],
					"stateMutability": "view",
					"type": "function"
				}
			],
			"devdoc": {
				"kind": "dev",
				"methods": {
					"decimals()": {
						"details": "Fetches the decimals from the Stork Oracle",
						"returns": {
							"_0": "uint8 Number of decimal places used by the oracle"
						}
					},
					"getTokenValue()": {
						"details": "Fetches the latest BTC price from Stork Oracle",
						"returns": {
							"_0": "uint256 The price adjusted for decimals"
						}
					}
				},
				"version": 1
			},
			"evm": {
				"assembly": "    /* \"tac/oracle.sol\":229:2240  contract TreasurySwap {... */\n  mstore(0x40, 0xc0)\n    /* \"tac/oracle.sol\":621:842  constructor() {... */\n  callvalue\n  dup1\n  iszero\n  tag_1\n  jumpi\n  0x00\n  dup1\n  revert\ntag_1:\n  pop\n    /* \"tac/oracle.sol\":660:702  0xacC0a0cF13571d30B4b8637996F5D6D774d4fd62 */\n  0xacc0a0cf13571d30b4b8637996f5d6d774d4fd62\n    /* \"tac/oracle.sol\":646:702  storkOracle = 0xacC0a0cF13571d30B4b8637996F5D6D774d4fd62 */\n  0xffffffffffffffffffffffffffffffffffffffff\n  and\n  0x80\n  dup2\n  0xffffffffffffffffffffffffffffffffffffffff\n  and\n  dup2\n  mstore\n  pop\n  pop\n    /* \"tac/oracle.sol\":752:818  0x7404e3d104ea7841c3d9e6fd20adfe99b4ad586bc08d8f3bd3afef894cf184de */\n  0x7404e3d104ea7841c3d9e6fd20adfe99b4ad586bc08d8f3bd3afef894cf184de\n    /* \"tac/oracle.sol\":737:818  BTC_ASSET_ID = 0x7404e3d104ea7841c3d9e6fd20adfe99b4ad586bc08d8f3bd3afef894cf184de */\n  0x00\n  shl\n  0xa0\n  dup2\n  dup2\n  mstore\n  pop\n  pop\n    /* \"tac/oracle.sol\":229:2240  contract TreasurySwap {... */\n  mload(0x80)\n  mload(0xa0)\n  codecopy(0x00, dataOffset(sub_0), dataSize(sub_0))\n  0x00\n  assignImmutable(\"0x8fef2229291b68be841adf029e58b87f39ba144b2d3b0af1760243d0a9bc6a1c\")\n  0x00\n  assignImmutable(\"0x277ab82e5a4641341820a4a2933a62c1de997e42e92548657ae21b3728d580fe\")\n  return(0x00, dataSize(sub_0))\nstop\n\nsub_0: assembly {\n        /* \"tac/oracle.sol\":229:2240  contract TreasurySwap {... */\n      mstore(0x40, 0x80)\n      callvalue\n      dup1\n      iszero\n      tag_1\n      jumpi\n      0x00\n      dup1\n      revert\n    tag_1:\n      pop\n      jumpi(tag_2, lt(calldatasize, 0x04))\n      shr(0xe0, calldataload(0x00))\n      dup1\n      0x053734dc\n      eq\n      tag_3\n      jumpi\n      dup1\n      0x06ffce53\n      eq\n      tag_4\n      jumpi\n      dup1\n      0x313ce567\n      eq\n      tag_5\n      jumpi\n      dup1\n      0xf9f0c340\n      eq\n      tag_6\n      jumpi\n    tag_2:\n      0x00\n      dup1\n      revert\n        /* \"tac/oracle.sol\":318:354  address public immutable storkOracle */\n    tag_3:\n      tag_7\n      tag_8\n      jump\t// in\n    tag_7:\n      mload(0x40)\n      tag_9\n      swap2\n      swap1\n      tag_10\n      jump\t// in\n    tag_9:\n      mload(0x40)\n      dup1\n      swap2\n      sub\n      swap1\n      return\n        /* \"tac/oracle.sol\":1398:2237  function getTokenValue() public view returns (uint256) {... */\n    tag_4:\n      tag_11\n      tag_12\n      jump\t// in\n    tag_11:\n      mload(0x40)\n      tag_13\n      swap2\n      swap1\n      tag_14\n      jump\t// in\n    tag_13:\n      mload(0x40)\n      dup1\n      swap2\n      sub\n      swap1\n      return\n        /* \"tac/oracle.sol\":994:1252  function decimals() public view returns (uint8) {... */\n    tag_5:\n      tag_15\n      tag_16\n      jump\t// in\n    tag_15:\n      mload(0x40)\n      tag_17\n      swap2\n      swap1\n      tag_18\n      jump\t// in\n    tag_17:\n      mload(0x40)\n      dup1\n      swap2\n      sub\n      swap1\n      return\n        /* \"tac/oracle.sol\":417:454  bytes32 public immutable BTC_ASSET_ID */\n    tag_6:\n      tag_19\n      tag_20\n      jump\t// in\n    tag_19:\n      mload(0x40)\n      tag_21\n      swap2\n      swap1\n      tag_22\n      jump\t// in\n    tag_21:\n      mload(0x40)\n      dup1\n      swap2\n      sub\n      swap1\n      return\n        /* \"tac/oracle.sol\":318:354  address public immutable storkOracle */\n    tag_8:\n      immutable(\"0x277ab82e5a4641341820a4a2933a62c1de997e42e92548657ae21b3728d580fe\")\n      dup2\n      jump\t// out\n        /* \"tac/oracle.sol\":1398:2237  function getTokenValue() public view returns (uint256) {... */\n    tag_12:\n        /* \"tac/oracle.sol\":1444:1451  uint256 */\n      0x00\n        /* \"tac/oracle.sol\":1504:1520  uint256 rawPrice */\n      dup1\n        /* \"tac/oracle.sol\":1548:1559  storkOracle */\n      immutable(\"0x277ab82e5a4641341820a4a2933a62c1de997e42e92548657ae21b3728d580fe\")\n        /* \"tac/oracle.sol\":1535:1573  IStorkOracle(storkOracle).latestAnswer */\n      0xffffffffffffffffffffffffffffffffffffffff\n      and\n      0x084d4783\n        /* \"tac/oracle.sol\":1574:1586  BTC_ASSET_ID */\n      immutable(\"0x8fef2229291b68be841adf029e58b87f39ba144b2d3b0af1760243d0a9bc6a1c\")\n        /* \"tac/oracle.sol\":1535:1587  IStorkOracle(storkOracle).latestAnswer(BTC_ASSET_ID) */\n      mload(0x40)\n      dup3\n      0xffffffff\n      and\n      0xe0\n      shl\n      dup2\n      mstore\n      0x04\n      add\n      tag_24\n      swap2\n      swap1\n      tag_22\n      jump\t// in\n    tag_24:\n      0x20\n      mload(0x40)\n      dup1\n      dup4\n      sub\n      dup2\n      dup7\n      gas\n      staticcall\n      swap3\n      pop\n      pop\n      pop\n      dup1\n      iszero\n      tag_25\n      jumpi\n      pop\n      mload(0x40)\n      returndatasize\n      not(0x1f)\n      0x1f\n      dup3\n      add\n      and\n      dup3\n      add\n      dup1\n      0x40\n      mstore\n      pop\n      dup2\n      add\n      swap1\n      tag_26\n      swap2\n      swap1\n      tag_27\n      jump\t// in\n    tag_26:\n      0x01\n    tag_25:\n        /* \"tac/oracle.sol\":1531:1746  try IStorkOracle(storkOracle).latestAnswer(BTC_ASSET_ID) returns (uint256 price) {... */\n      tag_28\n      jumpi\n        /* \"tac/oracle.sol\":1677:1734  revert(\"TreasurySwap: Failed to fetch price from oracle\") */\n      mload(0x40)\n      0x08c379a000000000000000000000000000000000000000000000000000000000\n      dup2\n      mstore\n      0x04\n      add\n      tag_32\n      swap1\n      tag_33\n      jump\t// in\n    tag_32:\n      mload(0x40)\n      dup1\n      swap2\n      sub\n      swap1\n      revert\n        /* \"tac/oracle.sol\":1531:1746  try IStorkOracle(storkOracle).latestAnswer(BTC_ASSET_ID) returns (uint256 price) {... */\n    tag_28:\n        /* \"tac/oracle.sol\":1638:1643  price */\n      dup1\n        /* \"tac/oracle.sol\":1627:1643  rawPrice = price */\n      swap2\n      pop\n        /* \"tac/oracle.sol\":1588:1655  returns (uint256 price) {... */\n      pop\n        /* \"tac/oracle.sol\":1785:1786  0 */\n      0x00\n        /* \"tac/oracle.sol\":1774:1782  rawPrice */\n      dup2\n        /* \"tac/oracle.sol\":1774:1786  rawPrice > 0 */\n      gt\n        /* \"tac/oracle.sol\":1766:1834  require(rawPrice > 0, \"TreasurySwap: Oracle returned invalid price\") */\n      tag_35\n      jumpi\n      mload(0x40)\n      0x08c379a000000000000000000000000000000000000000000000000000000000\n      dup2\n      mstore\n      0x04\n      add\n      tag_36\n      swap1\n      tag_37\n      jump\t// in\n    tag_36:\n      mload(0x40)\n      dup1\n      swap2\n      sub\n      swap1\n      revert\n    tag_35:\n        /* \"tac/oracle.sol\":1887:1907  uint8 oracleDecimals */\n      0x00\n        /* \"tac/oracle.sol\":1910:1920  decimals() */\n      tag_38\n        /* \"tac/oracle.sol\":1910:1918  decimals */\n      tag_16\n        /* \"tac/oracle.sol\":1910:1920  decimals() */\n      jump\t// in\n    tag_38:\n        /* \"tac/oracle.sol\":1887:1920  uint8 oracleDecimals = decimals() */\n      swap1\n      pop\n        /* \"tac/oracle.sol\":2024:2045  uint256 adjustedPrice */\n      0x00\n        /* \"tac/oracle.sol\":2074:2088  oracleDecimals */\n      dup2\n        /* \"tac/oracle.sol\":2066:2089  uint256(oracleDecimals) */\n      0xff\n      and\n        /* \"tac/oracle.sol\":2060:2062  10 */\n      0x0a\n        /* \"tac/oracle.sol\":2060:2089  10 ** uint256(oracleDecimals) */\n      tag_39\n      swap2\n      swap1\n      tag_40\n      jump\t// in\n    tag_39:\n        /* \"tac/oracle.sol\":2048:2056  rawPrice */\n      dup4\n        /* \"tac/oracle.sol\":2048:2090  rawPrice / (10 ** uint256(oracleDecimals)) */\n      tag_41\n      swap2\n      swap1\n      tag_42\n      jump\t// in\n    tag_41:\n        /* \"tac/oracle.sol\":2024:2090  uint256 adjustedPrice = rawPrice / (10 ** uint256(oracleDecimals)) */\n      swap1\n      pop\n        /* \"tac/oracle.sol\":2135:2136  0 */\n      0x00\n        /* \"tac/oracle.sol\":2119:2132  adjustedPrice */\n      dup2\n        /* \"tac/oracle.sol\":2119:2136  adjustedPrice > 0 */\n      gt\n        /* \"tac/oracle.sol\":2111:2188  require(adjustedPrice > 0, \"TreasurySwap: Price adjustment resulted in zero\") */\n      tag_43\n      jumpi\n      mload(0x40)\n      0x08c379a000000000000000000000000000000000000000000000000000000000\n      dup2\n      mstore\n      0x04\n      add\n      tag_44\n      swap1\n      tag_45\n      jump\t// in\n    tag_44:\n      mload(0x40)\n      dup1\n      swap2\n      sub\n      swap1\n      revert\n    tag_43:\n        /* \"tac/oracle.sol\":2216:2229  adjustedPrice */\n      dup1\n        /* \"tac/oracle.sol\":2209:2229  return adjustedPrice */\n      swap4\n      pop\n      pop\n      pop\n      pop\n        /* \"tac/oracle.sol\":1398:2237  function getTokenValue() public view returns (uint256) {... */\n      swap1\n      jump\t// out\n        /* \"tac/oracle.sol\":994:1252  function decimals() public view returns (uint8) {... */\n    tag_16:\n        /* \"tac/oracle.sol\":1035:1040  uint8 */\n      0x00\n        /* \"tac/oracle.sol\":1070:1081  storkOracle */\n      immutable(\"0x277ab82e5a4641341820a4a2933a62c1de997e42e92548657ae21b3728d580fe\")\n        /* \"tac/oracle.sol\":1057:1091  IStorkOracle(storkOracle).decimals */\n      0xffffffffffffffffffffffffffffffffffffffff\n      and\n      0x313ce567\n        /* \"tac/oracle.sol\":1057:1093  IStorkOracle(storkOracle).decimals() */\n      mload(0x40)\n      dup2\n      0xffffffff\n      and\n      0xe0\n      shl\n      dup2\n      mstore\n      0x04\n      add\n      0x20\n      mload(0x40)\n      dup1\n      dup4\n      sub\n      dup2\n      dup7\n      gas\n      staticcall\n      swap3\n      pop\n      pop\n      pop\n      dup1\n      iszero\n      tag_47\n      jumpi\n      pop\n      mload(0x40)\n      returndatasize\n      not(0x1f)\n      0x1f\n      dup3\n      add\n      and\n      dup3\n      add\n      dup1\n      0x40\n      mstore\n      pop\n      dup2\n      add\n      swap1\n      tag_48\n      swap2\n      swap1\n      tag_49\n      jump\t// in\n    tag_48:\n      0x01\n    tag_47:\n        /* \"tac/oracle.sol\":1053:1245  try IStorkOracle(storkOracle).decimals() returns (uint8 dec) {... */\n      tag_50\n      jumpi\n        /* \"tac/oracle.sol\":1173:1233  revert(\"TreasurySwap: Failed to fetch decimals from oracle\") */\n      mload(0x40)\n      0x08c379a000000000000000000000000000000000000000000000000000000000\n      dup2\n      mstore\n      0x04\n      add\n      tag_54\n      swap1\n      tag_55\n      jump\t// in\n    tag_54:\n      mload(0x40)\n      dup1\n      swap2\n      sub\n      swap1\n      revert\n        /* \"tac/oracle.sol\":1053:1245  try IStorkOracle(storkOracle).decimals() returns (uint8 dec) {... */\n    tag_50:\n        /* \"tac/oracle.sol\":1136:1139  dec */\n      dup1\n        /* \"tac/oracle.sol\":1129:1139  return dec */\n      swap2\n      pop\n      pop\n        /* \"tac/oracle.sol\":994:1252  function decimals() public view returns (uint8) {... */\n      swap1\n      jump\t// out\n        /* \"tac/oracle.sol\":417:454  bytes32 public immutable BTC_ASSET_ID */\n    tag_20:\n      immutable(\"0x8fef2229291b68be841adf029e58b87f39ba144b2d3b0af1760243d0a9bc6a1c\")\n      dup2\n      jump\t// out\n        /* \"#utility.yul\":7:133   */\n    tag_57:\n        /* \"#utility.yul\":44:51   */\n      0x00\n        /* \"#utility.yul\":84:126   */\n      0xffffffffffffffffffffffffffffffffffffffff\n        /* \"#utility.yul\":77:82   */\n      dup3\n        /* \"#utility.yul\":73:127   */\n      and\n        /* \"#utility.yul\":62:127   */\n      swap1\n      pop\n        /* \"#utility.yul\":7:133   */\n      swap2\n      swap1\n      pop\n      jump\t// out\n        /* \"#utility.yul\":139:235   */\n    tag_58:\n        /* \"#utility.yul\":176:183   */\n      0x00\n        /* \"#utility.yul\":205:229   */\n      tag_90\n        /* \"#utility.yul\":223:228   */\n      dup3\n        /* \"#utility.yul\":205:229   */\n      tag_57\n      jump\t// in\n    tag_90:\n        /* \"#utility.yul\":194:229   */\n      swap1\n      pop\n        /* \"#utility.yul\":139:235   */\n      swap2\n      swap1\n      pop\n      jump\t// out\n        /* \"#utility.yul\":241:359   */\n    tag_59:\n        /* \"#utility.yul\":328:352   */\n      tag_92\n        /* \"#utility.yul\":346:351   */\n      dup2\n        /* \"#utility.yul\":328:352   */\n      tag_58\n      jump\t// in\n    tag_92:\n        /* \"#utility.yul\":323:326   */\n      dup3\n        /* \"#utility.yul\":316:353   */\n      mstore\n        /* \"#utility.yul\":241:359   */\n      pop\n      pop\n      jump\t// out\n        /* \"#utility.yul\":365:587   */\n    tag_10:\n        /* \"#utility.yul\":458:462   */\n      0x00\n        /* \"#utility.yul\":496:498   */\n      0x20\n        /* \"#utility.yul\":485:494   */\n      dup3\n        /* \"#utility.yul\":481:499   */\n      add\n        /* \"#utility.yul\":473:499   */\n      swap1\n      pop\n        /* \"#utility.yul\":509:580   */\n      tag_94\n        /* \"#utility.yul\":577:578   */\n      0x00\n        /* \"#utility.yul\":566:575   */\n      dup4\n        /* \"#utility.yul\":562:579   */\n      add\n        /* \"#utility.yul\":553:559   */\n      dup5\n        /* \"#utility.yul\":509:580   */\n      tag_59\n      jump\t// in\n    tag_94:\n        /* \"#utility.yul\":365:587   */\n      swap3\n      swap2\n      pop\n      pop\n      jump\t// out\n        /* \"#utility.yul\":593:670   */\n    tag_60:\n        /* \"#utility.yul\":630:637   */\n      0x00\n        /* \"#utility.yul\":659:664   */\n      dup2\n        /* \"#utility.yul\":648:664   */\n      swap1\n      pop\n        /* \"#utility.yul\":593:670   */\n      swap2\n      swap1\n      pop\n      jump\t// out\n        /* \"#utility.yul\":676:794   */\n    tag_61:\n        /* \"#utility.yul\":763:787   */\n      tag_97\n        /* \"#utility.yul\":781:786   */\n      dup2\n        /* \"#utility.yul\":763:787   */\n      tag_60\n      jump\t// in\n    tag_97:\n        /* \"#utility.yul\":758:761   */\n      dup3\n        /* \"#utility.yul\":751:788   */\n      mstore\n        /* \"#utility.yul\":676:794   */\n      pop\n      pop\n      jump\t// out\n        /* \"#utility.yul\":800:1022   */\n    tag_14:\n        /* \"#utility.yul\":893:897   */\n      0x00\n        /* \"#utility.yul\":931:933   */\n      0x20\n        /* \"#utility.yul\":920:929   */\n      dup3\n        /* \"#utility.yul\":916:934   */\n      add\n        /* \"#utility.yul\":908:934   */\n      swap1\n      pop\n        /* \"#utility.yul\":944:1015   */\n      tag_99\n        /* \"#utility.yul\":1012:1013   */\n      0x00\n        /* \"#utility.yul\":1001:1010   */\n      dup4\n        /* \"#utility.yul\":997:1014   */\n      add\n        /* \"#utility.yul\":988:994   */\n      dup5\n        /* \"#utility.yul\":944:1015   */\n      tag_61\n      jump\t// in\n    tag_99:\n        /* \"#utility.yul\":800:1022   */\n      swap3\n      swap2\n      pop\n      pop\n      jump\t// out\n        /* \"#utility.yul\":1028:1114   */\n    tag_62:\n        /* \"#utility.yul\":1063:1070   */\n      0x00\n        /* \"#utility.yul\":1103:1107   */\n      0xff\n        /* \"#utility.yul\":1096:1101   */\n      dup3\n        /* \"#utility.yul\":1092:1108   */\n      and\n        /* \"#utility.yul\":1081:1108   */\n      swap1\n      pop\n        /* \"#utility.yul\":1028:1114   */\n      swap2\n      swap1\n      pop\n      jump\t// out\n        /* \"#utility.yul\":1120:1232   */\n    tag_63:\n        /* \"#utility.yul\":1203:1225   */\n      tag_102\n        /* \"#utility.yul\":1219:1224   */\n      dup2\n        /* \"#utility.yul\":1203:1225   */\n      tag_62\n      jump\t// in\n    tag_102:\n        /* \"#utility.yul\":1198:1201   */\n      dup3\n        /* \"#utility.yul\":1191:1226   */\n      mstore\n        /* \"#utility.yul\":1120:1232   */\n      pop\n      pop\n      jump\t// out\n        /* \"#utility.yul\":1238:1452   */\n    tag_18:\n        /* \"#utility.yul\":1327:1331   */\n      0x00\n        /* \"#utility.yul\":1365:1367   */\n      0x20\n        /* \"#utility.yul\":1354:1363   */\n      dup3\n        /* \"#utility.yul\":1350:1368   */\n      add\n        /* \"#utility.yul\":1342:1368   */\n      swap1\n      pop\n        /* \"#utility.yul\":1378:1445   */\n      tag_104\n        /* \"#utility.yul\":1442:1443   */\n      0x00\n        /* \"#utility.yul\":1431:1440   */\n      dup4\n        /* \"#utility.yul\":1427:1444   */\n      add\n        /* \"#utility.yul\":1418:1424   */\n      dup5\n        /* \"#utility.yul\":1378:1445   */\n      tag_63\n      jump\t// in\n    tag_104:\n        /* \"#utility.yul\":1238:1452   */\n      swap3\n      swap2\n      pop\n      pop\n      jump\t// out\n        /* \"#utility.yul\":1458:1535   */\n    tag_64:\n        /* \"#utility.yul\":1495:1502   */\n      0x00\n        /* \"#utility.yul\":1524:1529   */\n      dup2\n        /* \"#utility.yul\":1513:1529   */\n      swap1\n      pop\n        /* \"#utility.yul\":1458:1535   */\n      swap2\n      swap1\n      pop\n      jump\t// out\n        /* \"#utility.yul\":1541:1659   */\n    tag_65:\n        /* \"#utility.yul\":1628:1652   */\n      tag_107\n        /* \"#utility.yul\":1646:1651   */\n      dup2\n        /* \"#utility.yul\":1628:1652   */\n      tag_64\n      jump\t// in\n    tag_107:\n        /* \"#utility.yul\":1623:1626   */\n      dup3\n        /* \"#utility.yul\":1616:1653   */\n      mstore\n        /* \"#utility.yul\":1541:1659   */\n      pop\n      pop\n      jump\t// out\n        /* \"#utility.yul\":1665:1887   */\n    tag_22:\n        /* \"#utility.yul\":1758:1762   */\n      0x00\n        /* \"#utility.yul\":1796:1798   */\n      0x20\n        /* \"#utility.yul\":1785:1794   */\n      dup3\n        /* \"#utility.yul\":1781:1799   */\n      add\n        /* \"#utility.yul\":1773:1799   */\n      swap1\n      pop\n        /* \"#utility.yul\":1809:1880   */\n      tag_109\n        /* \"#utility.yul\":1877:1878   */\n      0x00\n        /* \"#utility.yul\":1866:1875   */\n      dup4\n        /* \"#utility.yul\":1862:1879   */\n      add\n        /* \"#utility.yul\":1853:1859   */\n      dup5\n        /* \"#utility.yul\":1809:1880   */\n      tag_65\n      jump\t// in\n    tag_109:\n        /* \"#utility.yul\":1665:1887   */\n      swap3\n      swap2\n      pop\n      pop\n      jump\t// out\n        /* \"#utility.yul\":1974:2091   */\n    tag_67:\n        /* \"#utility.yul\":2083:2084   */\n      0x00\n        /* \"#utility.yul\":2080:2081   */\n      dup1\n        /* \"#utility.yul\":2073:2085   */\n      revert\n        /* \"#utility.yul\":2220:2342   */\n    tag_69:\n        /* \"#utility.yul\":2293:2317   */\n      tag_114\n        /* \"#utility.yul\":2311:2316   */\n      dup2\n        /* \"#utility.yul\":2293:2317   */\n      tag_60\n      jump\t// in\n    tag_114:\n        /* \"#utility.yul\":2286:2291   */\n      dup2\n        /* \"#utility.yul\":2283:2318   */\n      eq\n        /* \"#utility.yul\":2273:2336   */\n      tag_115\n      jumpi\n        /* \"#utility.yul\":2332:2333   */\n      0x00\n        /* \"#utility.yul\":2329:2330   */\n      dup1\n        /* \"#utility.yul\":2322:2334   */\n      revert\n        /* \"#utility.yul\":2273:2336   */\n    tag_115:\n        /* \"#utility.yul\":2220:2342   */\n      pop\n      jump\t// out\n        /* \"#utility.yul\":2348:2491   */\n    tag_70:\n        /* \"#utility.yul\":2405:2410   */\n      0x00\n        /* \"#utility.yul\":2436:2442   */\n      dup2\n        /* \"#utility.yul\":2430:2443   */\n      mload\n        /* \"#utility.yul\":2421:2443   */\n      swap1\n      pop\n        /* \"#utility.yul\":2452:2485   */\n      tag_117\n        /* \"#utility.yul\":2479:2484   */\n      dup2\n        /* \"#utility.yul\":2452:2485   */\n      tag_69\n      jump\t// in\n    tag_117:\n        /* \"#utility.yul\":2348:2491   */\n      swap3\n      swap2\n      pop\n      pop\n      jump\t// out\n        /* \"#utility.yul\":2497:2848   */\n    tag_27:\n        /* \"#utility.yul\":2567:2573   */\n      0x00\n        /* \"#utility.yul\":2616:2618   */\n      0x20\n        /* \"#utility.yul\":2604:2613   */\n      dup3\n        /* \"#utility.yul\":2595:2602   */\n      dup5\n        /* \"#utility.yul\":2591:2614   */\n      sub\n        /* \"#utility.yul\":2587:2619   */\n      slt\n        /* \"#utility.yul\":2584:2703   */\n      iszero\n      tag_119\n      jumpi\n        /* \"#utility.yul\":2622:2701   */\n      tag_120\n      tag_67\n      jump\t// in\n    tag_120:\n        /* \"#utility.yul\":2584:2703   */\n    tag_119:\n        /* \"#utility.yul\":2742:2743   */\n      0x00\n        /* \"#utility.yul\":2767:2831   */\n      tag_121\n        /* \"#utility.yul\":2823:2830   */\n      dup5\n        /* \"#utility.yul\":2814:2820   */\n      dup3\n        /* \"#utility.yul\":2803:2812   */\n      dup6\n        /* \"#utility.yul\":2799:2821   */\n      add\n        /* \"#utility.yul\":2767:2831   */\n      tag_70\n      jump\t// in\n    tag_121:\n        /* \"#utility.yul\":2757:2831   */\n      swap2\n      pop\n        /* \"#utility.yul\":2713:2841   */\n      pop\n        /* \"#utility.yul\":2497:2848   */\n      swap3\n      swap2\n      pop\n      pop\n      jump\t// out\n        /* \"#utility.yul\":2854:3023   */\n    tag_71:\n        /* \"#utility.yul\":2938:2949   */\n      0x00\n        /* \"#utility.yul\":2972:2978   */\n      dup3\n        /* \"#utility.yul\":2967:2970   */\n      dup3\n        /* \"#utility.yul\":2960:2979   */\n      mstore\n        /* \"#utility.yul\":3012:3016   */\n      0x20\n        /* \"#utility.yul\":3007:3010   */\n      dup3\n        /* \"#utility.yul\":3003:3017   */\n      add\n        /* \"#utility.yul\":2988:3017   */\n      swap1\n      pop\n        /* \"#utility.yul\":2854:3023   */\n      swap3\n      swap2\n      pop\n      pop\n      jump\t// out\n        /* \"#utility.yul\":3029:3263   */\n    tag_72:\n        /* \"#utility.yul\":3169:3203   */\n      0x5472656173757279537761703a204661696c656420746f206665746368207072\n        /* \"#utility.yul\":3165:3166   */\n      0x00\n        /* \"#utility.yul\":3157:3163   */\n      dup3\n        /* \"#utility.yul\":3153:3167   */\n      add\n        /* \"#utility.yul\":3146:3204   */\n      mstore\n        /* \"#utility.yul\":3238:3255   */\n      0x6963652066726f6d206f7261636c650000000000000000000000000000000000\n        /* \"#utility.yul\":3233:3235   */\n      0x20\n        /* \"#utility.yul\":3225:3231   */\n      dup3\n        /* \"#utility.yul\":3221:3236   */\n      add\n        /* \"#utility.yul\":3214:3256   */\n      mstore\n        /* \"#utility.yul\":3029:3263   */\n      pop\n      jump\t// out\n        /* \"#utility.yul\":3269:3635   */\n    tag_73:\n        /* \"#utility.yul\":3411:3414   */\n      0x00\n        /* \"#utility.yul\":3432:3499   */\n      tag_125\n        /* \"#utility.yul\":3496:3498   */\n      0x2f\n        /* \"#utility.yul\":3491:3494   */\n      dup4\n        /* \"#utility.yul\":3432:3499   */\n      tag_71\n      jump\t// in\n    tag_125:\n        /* \"#utility.yul\":3425:3499   */\n      swap2\n      pop\n        /* \"#utility.yul\":3508:3601   */\n      tag_126\n        /* \"#utility.yul\":3597:3600   */\n      dup3\n        /* \"#utility.yul\":3508:3601   */\n      tag_72\n      jump\t// in\n    tag_126:\n        /* \"#utility.yul\":3626:3628   */\n      0x40\n        /* \"#utility.yul\":3621:3624   */\n      dup3\n        /* \"#utility.yul\":3617:3629   */\n      add\n        /* \"#utility.yul\":3610:3629   */\n      swap1\n      pop\n        /* \"#utility.yul\":3269:3635   */\n      swap2\n      swap1\n      pop\n      jump\t// out\n        /* \"#utility.yul\":3641:4060   */\n    tag_33:\n        /* \"#utility.yul\":3807:3811   */\n      0x00\n        /* \"#utility.yul\":3845:3847   */\n      0x20\n        /* \"#utility.yul\":3834:3843   */\n      dup3\n        /* \"#utility.yul\":3830:3848   */\n      add\n        /* \"#utility.yul\":3822:3848   */\n      swap1\n      pop\n        /* \"#utility.yul\":3894:3903   */\n      dup2\n        /* \"#utility.yul\":3888:3892   */\n      dup2\n        /* \"#utility.yul\":3884:3904   */\n      sub\n        /* \"#utility.yul\":3880:3881   */\n      0x00\n        /* \"#utility.yul\":3869:3878   */\n      dup4\n        /* \"#utility.yul\":3865:3882   */\n      add\n        /* \"#utility.yul\":3858:3905   */\n      mstore\n        /* \"#utility.yul\":3922:4053   */\n      tag_128\n        /* \"#utility.yul\":4048:4052   */\n      dup2\n        /* \"#utility.yul\":3922:4053   */\n      tag_73\n      jump\t// in\n    tag_128:\n        /* \"#utility.yul\":3914:4053   */\n      swap1\n      pop\n        /* \"#utility.yul\":3641:4060   */\n      swap2\n      swap1\n      pop\n      jump\t// out\n        /* \"#utility.yul\":4066:4296   */\n    tag_74:\n        /* \"#utility.yul\":4206:4240   */\n      0x5472656173757279537761703a204f7261636c652072657475726e656420696e\n        /* \"#utility.yul\":4202:4203   */\n      0x00\n        /* \"#utility.yul\":4194:4200   */\n      dup3\n        /* \"#utility.yul\":4190:4204   */\n      add\n        /* \"#utility.yul\":4183:4241   */\n      mstore\n        /* \"#utility.yul\":4275:4288   */\n      0x76616c6964207072696365000000000000000000000000000000000000000000\n        /* \"#utility.yul\":4270:4272   */\n      0x20\n        /* \"#utility.yul\":4262:4268   */\n      dup3\n        /* \"#utility.yul\":4258:4273   */\n      add\n        /* \"#utility.yul\":4251:4289   */\n      mstore\n        /* \"#utility.yul\":4066:4296   */\n      pop\n      jump\t// out\n        /* \"#utility.yul\":4302:4668   */\n    tag_75:\n        /* \"#utility.yul\":4444:4447   */\n      0x00\n        /* \"#utility.yul\":4465:4532   */\n      tag_131\n        /* \"#utility.yul\":4529:4531   */\n      0x2b\n        /* \"#utility.yul\":4524:4527   */\n      dup4\n        /* \"#utility.yul\":4465:4532   */\n      tag_71\n      jump\t// in\n    tag_131:\n        /* \"#utility.yul\":4458:4532   */\n      swap2\n      pop\n        /* \"#utility.yul\":4541:4634   */\n      tag_132\n        /* \"#utility.yul\":4630:4633   */\n      dup3\n        /* \"#utility.yul\":4541:4634   */\n      tag_74\n      jump\t// in\n    tag_132:\n        /* \"#utility.yul\":4659:4661   */\n      0x40\n        /* \"#utility.yul\":4654:4657   */\n      dup3\n        /* \"#utility.yul\":4650:4662   */\n      add\n        /* \"#utility.yul\":4643:4662   */\n      swap1\n      pop\n        /* \"#utility.yul\":4302:4668   */\n      swap2\n      swap1\n      pop\n      jump\t// out\n        /* \"#utility.yul\":4674:5093   */\n    tag_37:\n        /* \"#utility.yul\":4840:4844   */\n      0x00\n        /* \"#utility.yul\":4878:4880   */\n      0x20\n        /* \"#utility.yul\":4867:4876   */\n      dup3\n        /* \"#utility.yul\":4863:4881   */\n      add\n        /* \"#utility.yul\":4855:4881   */\n      swap1\n      pop\n        /* \"#utility.yul\":4927:4936   */\n      dup2\n        /* \"#utility.yul\":4921:4925   */\n      dup2\n        /* \"#utility.yul\":4917:4937   */\n      sub\n        /* \"#utility.yul\":4913:4914   */\n      0x00\n        /* \"#utility.yul\":4902:4911   */\n      dup4\n        /* \"#utility.yul\":4898:4915   */\n      add\n        /* \"#utility.yul\":4891:4938   */\n      mstore\n        /* \"#utility.yul\":4955:5086   */\n      tag_134\n        /* \"#utility.yul\":5081:5085   */\n      dup2\n        /* \"#utility.yul\":4955:5086   */\n      tag_75\n      jump\t// in\n    tag_134:\n        /* \"#utility.yul\":4947:5086   */\n      swap1\n      pop\n        /* \"#utility.yul\":4674:5093   */\n      swap2\n      swap1\n      pop\n      jump\t// out\n        /* \"#utility.yul\":5099:5279   */\n    tag_76:\n        /* \"#utility.yul\":5147:5224   */\n      0x4e487b7100000000000000000000000000000000000000000000000000000000\n        /* \"#utility.yul\":5144:5145   */\n      0x00\n        /* \"#utility.yul\":5137:5225   */\n      mstore\n        /* \"#utility.yul\":5244:5248   */\n      0x11\n        /* \"#utility.yul\":5241:5242   */\n      0x04\n        /* \"#utility.yul\":5234:5249   */\n      mstore\n        /* \"#utility.yul\":5268:5272   */\n      0x24\n        /* \"#utility.yul\":5265:5266   */\n      0x00\n        /* \"#utility.yul\":5258:5273   */\n      revert\n        /* \"#utility.yul\":5285:5387   */\n    tag_77:\n        /* \"#utility.yul\":5327:5335   */\n      0x00\n        /* \"#utility.yul\":5374:5379   */\n      dup2\n        /* \"#utility.yul\":5371:5372   */\n      0x01\n        /* \"#utility.yul\":5367:5380   */\n      shr\n        /* \"#utility.yul\":5346:5380   */\n      swap1\n      pop\n        /* \"#utility.yul\":5285:5387   */\n      swap2\n      swap1\n      pop\n      jump\t// out\n        /* \"#utility.yul\":5393:6241   */\n    tag_78:\n        /* \"#utility.yul\":5454:5459   */\n      0x00\n        /* \"#utility.yul\":5461:5465   */\n      dup1\n        /* \"#utility.yul\":5485:5491   */\n      dup3\n        /* \"#utility.yul\":5476:5491   */\n      swap2\n      pop\n        /* \"#utility.yul\":5509:5514   */\n      dup4\n        /* \"#utility.yul\":5500:5514   */\n      swap1\n      pop\n        /* \"#utility.yul\":5523:6235   */\n    tag_138:\n        /* \"#utility.yul\":5544:5545   */\n      0x01\n        /* \"#utility.yul\":5534:5542   */\n      dup6\n        /* \"#utility.yul\":5531:5546   */\n      gt\n        /* \"#utility.yul\":5523:6235   */\n      iszero\n      tag_140\n      jumpi\n        /* \"#utility.yul\":5639:5643   */\n      dup1\n        /* \"#utility.yul\":5634:5637   */\n      dup7\n        /* \"#utility.yul\":5630:5644   */\n      div\n        /* \"#utility.yul\":5624:5628   */\n      dup2\n        /* \"#utility.yul\":5621:5645   */\n      gt\n        /* \"#utility.yul\":5618:5668   */\n      iszero\n      tag_141\n      jumpi\n        /* \"#utility.yul\":5648:5666   */\n      tag_142\n      tag_76\n      jump\t// in\n    tag_142:\n        /* \"#utility.yul\":5618:5668   */\n    tag_141:\n        /* \"#utility.yul\":5698:5699   */\n      0x01\n        /* \"#utility.yul\":5688:5696   */\n      dup6\n        /* \"#utility.yul\":5684:5700   */\n      and\n        /* \"#utility.yul\":5681:6132   */\n      iszero\n      tag_143\n      jumpi\n        /* \"#utility.yul\":6113:6117   */\n      dup1\n        /* \"#utility.yul\":6106:6111   */\n      dup3\n        /* \"#utility.yul\":6102:6118   */\n      mul\n        /* \"#utility.yul\":6093:6118   */\n      swap2\n      pop\n        /* \"#utility.yul\":5681:6132   */\n    tag_143:\n        /* \"#utility.yul\":6163:6167   */\n      dup1\n        /* \"#utility.yul\":6157:6161   */\n      dup2\n        /* \"#utility.yul\":6153:6168   */\n      mul\n        /* \"#utility.yul\":6145:6168   */\n      swap1\n      pop\n        /* \"#utility.yul\":6193:6225   */\n      tag_144\n        /* \"#utility.yul\":6216:6224   */\n      dup6\n        /* \"#utility.yul\":6193:6225   */\n      tag_77\n      jump\t// in\n    tag_144:\n        /* \"#utility.yul\":6181:6225   */\n      swap5\n      pop\n        /* \"#utility.yul\":5523:6235   */\n      jump(tag_138)\n    tag_140:\n        /* \"#utility.yul\":5393:6241   */\n      swap5\n      pop\n      swap5\n      swap3\n      pop\n      pop\n      pop\n      jump\t// out\n        /* \"#utility.yul\":6247:7320   */\n    tag_79:\n        /* \"#utility.yul\":6301:6306   */\n      0x00\n        /* \"#utility.yul\":6492:6500   */\n      dup3\n        /* \"#utility.yul\":6482:6522   */\n      tag_146\n      jumpi\n        /* \"#utility.yul\":6513:6514   */\n      0x01\n        /* \"#utility.yul\":6504:6514   */\n      swap1\n      pop\n        /* \"#utility.yul\":6515:6520   */\n      jump(tag_145)\n        /* \"#utility.yul\":6482:6522   */\n    tag_146:\n        /* \"#utility.yul\":6541:6545   */\n      dup2\n        /* \"#utility.yul\":6531:6567   */\n      tag_147\n      jumpi\n        /* \"#utility.yul\":6558:6559   */\n      0x00\n        /* \"#utility.yul\":6549:6559   */\n      swap1\n      pop\n        /* \"#utility.yul\":6560:6565   */\n      jump(tag_145)\n        /* \"#utility.yul\":6531:6567   */\n    tag_147:\n        /* \"#utility.yul\":6627:6631   */\n      dup2\n        /* \"#utility.yul\":6675:6676   */\n      0x01\n        /* \"#utility.yul\":6670:6697   */\n      dup2\n      eq\n      tag_149\n      jumpi\n        /* \"#utility.yul\":6711:6712   */\n      0x02\n        /* \"#utility.yul\":6706:6897   */\n      dup2\n      eq\n      tag_150\n      jumpi\n        /* \"#utility.yul\":6620:6897   */\n      jump(tag_148)\n        /* \"#utility.yul\":6670:6697   */\n    tag_149:\n        /* \"#utility.yul\":6688:6689   */\n      0x01\n        /* \"#utility.yul\":6679:6689   */\n      swap2\n      pop\n        /* \"#utility.yul\":6690:6695   */\n      pop\n      jump(tag_145)\n        /* \"#utility.yul\":6706:6897   */\n    tag_150:\n        /* \"#utility.yul\":6751:6754   */\n      0xff\n        /* \"#utility.yul\":6741:6749   */\n      dup5\n        /* \"#utility.yul\":6738:6755   */\n      gt\n        /* \"#utility.yul\":6735:6778   */\n      iszero\n      tag_151\n      jumpi\n        /* \"#utility.yul\":6758:6776   */\n      tag_152\n      tag_76\n      jump\t// in\n    tag_152:\n        /* \"#utility.yul\":6735:6778   */\n    tag_151:\n        /* \"#utility.yul\":6807:6815   */\n      dup4\n        /* \"#utility.yul\":6804:6805   */\n      0x02\n        /* \"#utility.yul\":6800:6816   */\n      exp\n        /* \"#utility.yul\":6791:6816   */\n      swap2\n      pop\n        /* \"#utility.yul\":6842:6845   */\n      dup5\n        /* \"#utility.yul\":6835:6840   */\n      dup3\n        /* \"#utility.yul\":6832:6846   */\n      gt\n        /* \"#utility.yul\":6829:6869   */\n      iszero\n      tag_153\n      jumpi\n        /* \"#utility.yul\":6849:6867   */\n      tag_154\n      tag_76\n      jump\t// in\n    tag_154:\n        /* \"#utility.yul\":6829:6869   */\n    tag_153:\n        /* \"#utility.yul\":6882:6887   */\n      pop\n      jump(tag_145)\n        /* \"#utility.yul\":6620:6897   */\n    tag_148:\n      pop\n        /* \"#utility.yul\":7006:7008   */\n      0x20\n        /* \"#utility.yul\":6996:7004   */\n      dup4\n        /* \"#utility.yul\":6993:7009   */\n      lt\n        /* \"#utility.yul\":6987:6990   */\n      0x0133\n        /* \"#utility.yul\":6981:6985   */\n      dup4\n        /* \"#utility.yul\":6978:6991   */\n      lt\n        /* \"#utility.yul\":6974:7010   */\n      and\n        /* \"#utility.yul\":6956:6958   */\n      0x4e\n        /* \"#utility.yul\":6946:6954   */\n      dup5\n        /* \"#utility.yul\":6943:6959   */\n      lt\n        /* \"#utility.yul\":6938:6940   */\n      0x0b\n        /* \"#utility.yul\":6932:6936   */\n      dup5\n        /* \"#utility.yul\":6929:6941   */\n      lt\n        /* \"#utility.yul\":6925:6960   */\n      and\n        /* \"#utility.yul\":6909:7020   */\n      or\n        /* \"#utility.yul\":6906:7152   */\n      iszero\n      tag_155\n      jumpi\n        /* \"#utility.yul\":7062:7070   */\n      dup3\n        /* \"#utility.yul\":7056:7060   */\n      dup3\n        /* \"#utility.yul\":7052:7071   */\n      exp\n        /* \"#utility.yul\":7043:7071   */\n      swap1\n      pop\n        /* \"#utility.yul\":7097:7100   */\n      dup4\n        /* \"#utility.yul\":7090:7095   */\n      dup2\n        /* \"#utility.yul\":7087:7101   */\n      gt\n        /* \"#utility.yul\":7084:7124   */\n      iszero\n      tag_156\n      jumpi\n        /* \"#utility.yul\":7104:7122   */\n      tag_157\n      tag_76\n      jump\t// in\n    tag_157:\n        /* \"#utility.yul\":7084:7124   */\n    tag_156:\n        /* \"#utility.yul\":7137:7142   */\n      jump(tag_145)\n        /* \"#utility.yul\":6906:7152   */\n    tag_155:\n        /* \"#utility.yul\":7177:7219   */\n      tag_158\n        /* \"#utility.yul\":7215:7218   */\n      dup5\n        /* \"#utility.yul\":7205:7213   */\n      dup5\n        /* \"#utility.yul\":7199:7203   */\n      dup5\n        /* \"#utility.yul\":7196:7197   */\n      0x01\n        /* \"#utility.yul\":7177:7219   */\n      tag_78\n      jump\t// in\n    tag_158:\n        /* \"#utility.yul\":7162:7219   */\n      swap3\n      pop\n      swap1\n      pop\n        /* \"#utility.yul\":7251:7255   */\n      dup2\n        /* \"#utility.yul\":7246:7249   */\n      dup5\n        /* \"#utility.yul\":7242:7256   */\n      div\n        /* \"#utility.yul\":7235:7240   */\n      dup2\n        /* \"#utility.yul\":7232:7257   */\n      gt\n        /* \"#utility.yul\":7229:7280   */\n      iszero\n      tag_159\n      jumpi\n        /* \"#utility.yul\":7260:7278   */\n      tag_160\n      tag_76\n      jump\t// in\n    tag_160:\n        /* \"#utility.yul\":7229:7280   */\n    tag_159:\n        /* \"#utility.yul\":7309:7313   */\n      dup2\n        /* \"#utility.yul\":7302:7307   */\n      dup2\n        /* \"#utility.yul\":7298:7314   */\n      mul\n        /* \"#utility.yul\":7289:7314   */\n      swap1\n      pop\n        /* \"#utility.yul\":6247:7320   */\n    tag_145:\n      swap4\n      swap3\n      pop\n      pop\n      pop\n      jump\t// out\n        /* \"#utility.yul\":7326:7611   */\n    tag_40:\n        /* \"#utility.yul\":7386:7391   */\n      0x00\n        /* \"#utility.yul\":7410:7433   */\n      tag_162\n        /* \"#utility.yul\":7428:7432   */\n      dup3\n        /* \"#utility.yul\":7410:7433   */\n      tag_60\n      jump\t// in\n    tag_162:\n        /* \"#utility.yul\":7402:7433   */\n      swap2\n      pop\n        /* \"#utility.yul\":7454:7481   */\n      tag_163\n        /* \"#utility.yul\":7472:7480   */\n      dup4\n        /* \"#utility.yul\":7454:7481   */\n      tag_60\n      jump\t// in\n    tag_163:\n        /* \"#utility.yul\":7442:7481   */\n      swap3\n      pop\n        /* \"#utility.yul\":7500:7604   */\n      tag_164\n        /* \"#utility.yul\":7537:7603   */\n      0xffffffffffffffffffffffffffffffffffffffffffffffffffffffffffffffff\n        /* \"#utility.yul\":7527:7535   */\n      dup5\n        /* \"#utility.yul\":7521:7525   */\n      dup5\n        /* \"#utility.yul\":7500:7604   */\n      tag_79\n      jump\t// in\n    tag_164:\n        /* \"#utility.yul\":7491:7604   */\n      swap1\n      pop\n        /* \"#utility.yul\":7326:7611   */\n      swap3\n      swap2\n      pop\n      pop\n      jump\t// out\n        /* \"#utility.yul\":7617:7797   */\n    tag_80:\n        /* \"#utility.yul\":7665:7742   */\n      0x4e487b7100000000000000000000000000000000000000000000000000000000\n        /* \"#utility.yul\":7662:7663   */\n      0x00\n        /* \"#utility.yul\":7655:7743   */\n      mstore\n        /* \"#utility.yul\":7762:7766   */\n      0x12\n        /* \"#utility.yul\":7759:7760   */\n      0x04\n        /* \"#utility.yul\":7752:7767   */\n      mstore\n        /* \"#utility.yul\":7786:7790   */\n      0x24\n        /* \"#utility.yul\":7783:7784   */\n      0x00\n        /* \"#utility.yul\":7776:7791   */\n      revert\n        /* \"#utility.yul\":7803:7988   */\n    tag_42:\n        /* \"#utility.yul\":7843:7844   */\n      0x00\n        /* \"#utility.yul\":7860:7880   */\n      tag_167\n        /* \"#utility.yul\":7878:7879   */\n      dup3\n        /* \"#utility.yul\":7860:7880   */\n      tag_60\n      jump\t// in\n    tag_167:\n        /* \"#utility.yul\":7855:7880   */\n      swap2\n      pop\n        /* \"#utility.yul\":7894:7914   */\n      tag_168\n        /* \"#utility.yul\":7912:7913   */\n      dup4\n        /* \"#utility.yul\":7894:7914   */\n      tag_60\n      jump\t// in\n    tag_168:\n        /* \"#utility.yul\":7889:7914   */\n      swap3\n      pop\n        /* \"#utility.yul\":7933:7934   */\n      dup3\n        /* \"#utility.yul\":7923:7958   */\n      tag_169\n      jumpi\n        /* \"#utility.yul\":7938:7956   */\n      tag_170\n      tag_80\n      jump\t// in\n    tag_170:\n        /* \"#utility.yul\":7923:7958   */\n    tag_169:\n        /* \"#utility.yul\":7980:7981   */\n      dup3\n        /* \"#utility.yul\":7977:7978   */\n      dup3\n        /* \"#utility.yul\":7973:7982   */\n      div\n        /* \"#utility.yul\":7968:7982   */\n      swap1\n      pop\n        /* \"#utility.yul\":7803:7988   */\n      swap3\n      swap2\n      pop\n      pop\n      jump\t// out\n        /* \"#utility.yul\":7994:8228   */\n    tag_81:\n        /* \"#utility.yul\":8134:8168   */\n      0x5472656173757279537761703a2050726963652061646a7573746d656e742072\n        /* \"#utility.yul\":8130:8131   */\n      0x00\n        /* \"#utility.yul\":8122:8128   */\n      dup3\n        /* \"#utility.yul\":8118:8132   */\n      add\n        /* \"#utility.yul\":8111:8169   */\n      mstore\n        /* \"#utility.yul\":8203:8220   */\n      0x6573756c74656420696e207a65726f0000000000000000000000000000000000\n        /* \"#utility.yul\":8198:8200   */\n      0x20\n        /* \"#utility.yul\":8190:8196   */\n      dup3\n        /* \"#utility.yul\":8186:8201   */\n      add\n        /* \"#utility.yul\":8179:8221   */\n      mstore\n        /* \"#utility.yul\":7994:8228   */\n      pop\n      jump\t// out\n        /* \"#utility.yul\":8234:8600   */\n    tag_82:\n        /* \"#utility.yul\":8376:8379   */\n      0x00\n        /* \"#utility.yul\":8397:8464   */\n      tag_173\n        /* \"#utility.yul\":8461:8463   */\n      0x2f\n        /* \"#utility.yul\":8456:8459   */\n      dup4\n        /* \"#utility.yul\":8397:8464   */\n      tag_71\n      jump\t// in\n    tag_173:\n        /* \"#utility.yul\":8390:8464   */\n      swap2\n      pop\n        /* \"#utility.yul\":8473:8566   */\n      tag_174\n        /* \"#utility.yul\":8562:8565   */\n      dup3\n        /* \"#utility.yul\":8473:8566   */\n      tag_81\n      jump\t// in\n    tag_174:\n        /* \"#utility.yul\":8591:8593   */\n      0x40\n        /* \"#utility.yul\":8586:8589   */\n      dup3\n        /* \"#utility.yul\":8582:8594   */\n      add\n        /* \"#utility.yul\":8575:8594   */\n      swap1\n      pop\n        /* \"#utility.yul\":8234:8600   */\n      swap2\n      swap1\n      pop\n      jump\t// out\n        /* \"#utility.yul\":8606:9025   */\n    tag_45:\n        /* \"#utility.yul\":8772:8776   */\n      0x00\n        /* \"#utility.yul\":8810:8812   */\n      0x20\n        /* \"#utility.yul\":8799:8808   */\n      dup3\n        /* \"#utility.yul\":8795:8813   */\n      add\n        /* \"#utility.yul\":8787:8813   */\n      swap1\n      pop\n        /* \"#utility.yul\":8859:8868   */\n      dup2\n        /* \"#utility.yul\":8853:8857   */\n      dup2\n        /* \"#utility.yul\":8849:8869   */\n      sub\n        /* \"#utility.yul\":8845:8846   */\n      0x00\n        /* \"#utility.yul\":8834:8843   */\n      dup4\n        /* \"#utility.yul\":8830:8847   */\n      add\n        /* \"#utility.yul\":8823:8870   */\n      mstore\n        /* \"#utility.yul\":8887:9018   */\n      tag_176\n        /* \"#utility.yul\":9013:9017   */\n      dup2\n        /* \"#utility.yul\":8887:9018   */\n      tag_82\n      jump\t// in\n    tag_176:\n        /* \"#utility.yul\":8879:9018   */\n      swap1\n      pop\n        /* \"#utility.yul\":8606:9025   */\n      swap2\n      swap1\n      pop\n      jump\t// out\n        /* \"#utility.yul\":9031:9149   */\n    tag_83:\n        /* \"#utility.yul\":9102:9124   */\n      tag_178\n        /* \"#utility.yul\":9118:9123   */\n      dup2\n        /* \"#utility.yul\":9102:9124   */\n      tag_62\n      jump\t// in\n    tag_178:\n        /* \"#utility.yul\":9095:9100   */\n      dup2\n        /* \"#utility.yul\":9092:9125   */\n      eq\n        /* \"#utility.yul\":9082:9143   */\n      tag_179\n      jumpi\n        /* \"#utility.yul\":9139:9140   */\n      0x00\n        /* \"#utility.yul\":9136:9137   */\n      dup1\n        /* \"#utility.yul\":9129:9141   */\n      revert\n        /* \"#utility.yul\":9082:9143   */\n    tag_179:\n        /* \"#utility.yul\":9031:9149   */\n      pop\n      jump\t// out\n        /* \"#utility.yul\":9155:9294   */\n    tag_84:\n        /* \"#utility.yul\":9210:9215   */\n      0x00\n        /* \"#utility.yul\":9241:9247   */\n      dup2\n        /* \"#utility.yul\":9235:9248   */\n      mload\n        /* \"#utility.yul\":9226:9248   */\n      swap1\n      pop\n        /* \"#utility.yul\":9257:9288   */\n      tag_181\n        /* \"#utility.yul\":9282:9287   */\n      dup2\n        /* \"#utility.yul\":9257:9288   */\n      tag_83\n      jump\t// in\n    tag_181:\n        /* \"#utility.yul\":9155:9294   */\n      swap3\n      swap2\n      pop\n      pop\n      jump\t// out\n        /* \"#utility.yul\":9300:9647   */\n    tag_49:\n        /* \"#utility.yul\":9368:9374   */\n      0x00\n        /* \"#utility.yul\":9417:9419   */\n      0x20\n        /* \"#utility.yul\":9405:9414   */\n      dup3\n        /* \"#utility.yul\":9396:9403   */\n      dup5\n        /* \"#utility.yul\":9392:9415   */\n      sub\n        /* \"#utility.yul\":9388:9420   */\n      slt\n        /* \"#utility.yul\":9385:9504   */\n      iszero\n      tag_183\n      jumpi\n        /* \"#utility.yul\":9423:9502   */\n      tag_184\n      tag_67\n      jump\t// in\n    tag_184:\n        /* \"#utility.yul\":9385:9504   */\n    tag_183:\n        /* \"#utility.yul\":9543:9544   */\n      0x00\n        /* \"#utility.yul\":9568:9630   */\n      tag_185\n        /* \"#utility.yul\":9622:9629   */\n      dup5\n        /* \"#utility.yul\":9613:9619   */\n      dup3\n        /* \"#utility.yul\":9602:9611   */\n      dup6\n        /* \"#utility.yul\":9598:9620   */\n      add\n        /* \"#utility.yul\":9568:9630   */\n      tag_84\n      jump\t// in\n    tag_185:\n        /* \"#utility.yul\":9558:9630   */\n      swap2\n      pop\n        /* \"#utility.yul\":9514:9640   */\n      pop\n        /* \"#utility.yul\":9300:9647   */\n      swap3\n      swap2\n      pop\n      pop\n      jump\t// out\n        /* \"#utility.yul\":9653:9890   */\n    tag_85:\n        /* \"#utility.yul\":9793:9827   */\n      0x5472656173757279537761703a204661696c656420746f206665746368206465\n        /* \"#utility.yul\":9789:9790   */\n      0x00\n        /* \"#utility.yul\":9781:9787   */\n      dup3\n        /* \"#utility.yul\":9777:9791   */\n      add\n        /* \"#utility.yul\":9770:9828   */\n      mstore\n        /* \"#utility.yul\":9862:9882   */\n      0x63696d616c732066726f6d206f7261636c650000000000000000000000000000\n        /* \"#utility.yul\":9857:9859   */\n      0x20\n        /* \"#utility.yul\":9849:9855   */\n      dup3\n        /* \"#utility.yul\":9845:9860   */\n      add\n        /* \"#utility.yul\":9838:9883   */\n      mstore\n        /* \"#utility.yul\":9653:9890   */\n      pop\n      jump\t// out\n        /* \"#utility.yul\":9896:10262   */\n    tag_86:\n        /* \"#utility.yul\":10038:10041   */\n      0x00\n        /* \"#utility.yul\":10059:10126   */\n      tag_188\n        /* \"#utility.yul\":10123:10125   */\n      0x32\n        /* \"#utility.yul\":10118:10121   */\n      dup4\n        /* \"#utility.yul\":10059:10126   */\n      tag_71\n      jump\t// in\n    tag_188:\n        /* \"#utility.yul\":10052:10126   */\n      swap2\n      pop\n        /* \"#utility.yul\":10135:10228   */\n      tag_189\n        /* \"#utility.yul\":10224:10227   */\n      dup3\n        /* \"#utility.yul\":10135:10228   */\n      tag_85\n      jump\t// in\n    tag_189:\n        /* \"#utility.yul\":10253:10255   */\n      0x40\n        /* \"#utility.yul\":10248:10251   */\n      dup3\n        /* \"#utility.yul\":10244:10256   */\n      add\n        /* \"#utility.yul\":10237:10256   */\n      swap1\n      pop\n        /* \"#utility.yul\":9896:10262   */\n      swap2\n      swap1\n      pop\n      jump\t// out\n        /* \"#utility.yul\":10268:10687   */\n    tag_55:\n        /* \"#utility.yul\":10434:10438   */\n      0x00\n        /* \"#utility.yul\":10472:10474   */\n      0x20\n        /* \"#utility.yul\":10461:10470   */\n      dup3\n        /* \"#utility.yul\":10457:10475   */\n      add\n        /* \"#utility.yul\":10449:10475   */\n      swap1\n      pop\n        /* \"#utility.yul\":10521:10530   */\n      dup2\n        /* \"#utility.yul\":10515:10519   */\n      dup2\n        /* \"#utility.yul\":10511:10531   */\n      sub\n        /* \"#utility.yul\":10507:10508   */\n      0x00\n        /* \"#utility.yul\":10496:10505   */\n      dup4\n        /* \"#utility.yul\":10492:10509   */\n      add\n        /* \"#utility.yul\":10485:10532   */\n      mstore\n        /* \"#utility.yul\":10549:10680   */\n      tag_191\n        /* \"#utility.yul\":10675:10679   */\n      dup2\n        /* \"#utility.yul\":10549:10680   */\n      tag_86\n      jump\t// in\n    tag_191:\n        /* \"#utility.yul\":10541:10680   */\n      swap1\n      pop\n        /* \"#utility.yul\":10268:10687   */\n      swap2\n      swap1\n      pop\n      jump\t// out\n\n    auxdata: 0xa264697066735822122038be85999514eeab40522a691a1d68b2e59f6eb6ded519787de3cded787e2cbf64736f6c634300081a0033\n}\n",
				"bytecode": {
					"linkReferences": {},
					"object": "60c0604052348015600e575f80fd5b5073acc0a0cf13571d30b4b8637996f5d6d774d4fd6273ffffffffffffffffffffffffffffffffffffffff1660808173ffffffffffffffffffffffffffffffffffffffff16815250507f7404e3d104ea7841c3d9e6fd20adfe99b4ad586bc08d8f3bd3afef894cf184de5f1b60a0818152505060805160a0516109a86100b55f395f818161012a015261036901525f818160c80152818160ee015261029b01526109a85ff3fe608060405234801561000f575f80fd5b506004361061004a575f3560e01c8063053734dc1461004e57806306ffce531461006c578063313ce5671461008a578063f9f0c340146100a8575b5f80fd5b6100566100c6565b60405161006391906103ca565b60405180910390f35b6100746100ea565b60405161008191906103fb565b60405180910390f35b610092610298565b60405161009f919061042f565b60405180910390f35b6100b0610367565b6040516100bd9190610460565b60405180910390f35b7f000000000000000000000000000000000000000000000000000000000000000081565b5f807f000000000000000000000000000000000000000000000000000000000000000073ffffffffffffffffffffffffffffffffffffffff1663084d47837f00000000000000000000000000000000000000000000000000000000000000006040518263ffffffff1660e01b81526004016101659190610460565b602060405180830381865afa92505050801561019f57506040513d601f19601f8201168201806040525081019061019c91906104a7565b60015b6101de576040517f08c379a00000000000000000000000000000000000000000000000000000000081526004016101d590610552565b60405180910390fd5b809150505f8111610224576040517f08c379a000000000000000000000000000000000000000000000000000000000815260040161021b906105e0565b60405180910390fd5b5f61022d610298565b90505f8160ff16600a610240919061075a565b8361024b91906107d1565b90505f811161028f576040517f08c379a000000000000000000000000000000000000000000000000000000000815260040161028690610871565b60405180910390fd5b80935050505090565b5f7f000000000000000000000000000000000000000000000000000000000000000073ffffffffffffffffffffffffffffffffffffffff1663313ce5676040518163ffffffff1660e01b8152600401602060405180830381865afa92505050801561032157506040513d601f19601f8201168201806040525081019061031e91906108b9565b60015b610360576040517f08c379a000000000000000000000000000000000000000000000000000000000815260040161035790610954565b60405180910390fd5b8091505090565b7f000000000000000000000000000000000000000000000000000000000000000081565b5f73ffffffffffffffffffffffffffffffffffffffff82169050919050565b5f6103b48261038b565b9050919050565b6103c4816103aa565b82525050565b5f6020820190506103dd5f8301846103bb565b92915050565b5f819050919050565b6103f5816103e3565b82525050565b5f60208201905061040e5f8301846103ec565b92915050565b5f60ff82169050919050565b61042981610414565b82525050565b5f6020820190506104425f830184610420565b92915050565b5f819050919050565b61045a81610448565b82525050565b5f6020820190506104735f830184610451565b92915050565b5f80fd5b610486816103e3565b8114610490575f80fd5b50565b5f815190506104a18161047d565b92915050565b5f602082840312156104bc576104bb610479565b5b5f6104c984828501610493565b91505092915050565b5f82825260208201905092915050565b7f5472656173757279537761703a204661696c656420746f2066657463682070725f8201527f6963652066726f6d206f7261636c650000000000000000000000000000000000602082015250565b5f61053c602f836104d2565b9150610547826104e2565b604082019050919050565b5f6020820190508181035f83015261056981610530565b9050919050565b7f5472656173757279537761703a204f7261636c652072657475726e656420696e5f8201527f76616c6964207072696365000000000000000000000000000000000000000000602082015250565b5f6105ca602b836104d2565b91506105d582610570565b604082019050919050565b5f6020820190508181035f8301526105f7816105be565b9050919050565b7f4e487b71000000000000000000000000000000000000000000000000000000005f52601160045260245ffd5b5f8160011c9050919050565b5f808291508390505b60018511156106805780860481111561065c5761065b6105fe565b5b600185161561066b5780820291505b80810290506106798561062b565b9450610640565b94509492505050565b5f826106985760019050610753565b816106a5575f9050610753565b81600181146106bb57600281146106c5576106f4565b6001915050610753565b60ff8411156106d7576106d66105fe565b5b8360020a9150848211156106ee576106ed6105fe565b5b50610753565b5060208310610133831016604e8410600b84101617156107295782820a905083811115610724576107236105fe565b5b610753565b6107368484846001610637565b9250905081840481111561074d5761074c6105fe565b5b81810290505b9392505050565b5f610764826103e3565b915061076f836103e3565b925061079c7fffffffffffffffffffffffffffffffffffffffffffffffffffffffffffffffff8484610689565b905092915050565b7f4e487b71000000000000000000000000000000000000000000000000000000005f52601260045260245ffd5b5f6107db826103e3565b91506107e6836103e3565b9250826107f6576107f56107a4565b5b828204905092915050565b7f5472656173757279537761703a2050726963652061646a7573746d656e7420725f8201527f6573756c74656420696e207a65726f0000000000000000000000000000000000602082015250565b5f61085b602f836104d2565b915061086682610801565b604082019050919050565b5f6020820190508181035f8301526108888161084f565b9050919050565b61089881610414565b81146108a2575f80fd5b50565b5f815190506108b38161088f565b92915050565b5f602082840312156108ce576108cd610479565b5b5f6108db848285016108a5565b91505092915050565b7f5472656173757279537761703a204661696c656420746f2066657463682064655f8201527f63696d616c732066726f6d206f7261636c650000000000000000000000000000602082015250565b5f61093e6032836104d2565b9150610949826108e4565b604082019050919050565b5f6020820190508181035f83015261096b81610932565b905091905056fea264697066735822122038be85999514eeab40522a691a1d68b2e59f6eb6ded519787de3cded787e2cbf64736f6c634300081a0033",
					"opcodes": "PUSH1 0xC0 PUSH1 0x40 MSTORE CALLVALUE DUP1 ISZERO PUSH1 0xE JUMPI PUSH0 DUP1 REVERT JUMPDEST POP PUSH20 0xACC0A0CF13571D30B4B8637996F5D6D774D4FD62 PUSH20 0xFFFFFFFFFFFFFFFFFFFFFFFFFFFFFFFFFFFFFFFF AND PUSH1 0x80 DUP2 PUSH20 0xFFFFFFFFFFFFFFFFFFFFFFFFFFFFFFFFFFFFFFFF AND DUP2 MSTORE POP POP PUSH32 0x7404E3D104EA7841C3D9E6FD20ADFE99B4AD586BC08D8F3BD3AFEF894CF184DE PUSH0 SHL PUSH1 0xA0 DUP2 DUP2 MSTORE POP POP PUSH1 0x80 MLOAD PUSH1 0xA0 MLOAD PUSH2 0x9A8 PUSH2 0xB5 PUSH0 CODECOPY PUSH0 DUP2 DUP2 PUSH2 0x12A ADD MSTORE PUSH2 0x369 ADD MSTORE PUSH0 DUP2 DUP2 PUSH1 0xC8 ADD MSTORE DUP2 DUP2 PUSH1 0xEE ADD MSTORE PUSH2 0x29B ADD MSTORE PUSH2 0x9A8 PUSH0 RETURN INVALID PUSH1 0x80 PUSH1 0x40 MSTORE CALLVALUE DUP1 ISZERO PUSH2 0xF JUMPI PUSH0 DUP1 REVERT JUMPDEST POP PUSH1 0x4 CALLDATASIZE LT PUSH2 0x4A JUMPI PUSH0 CALLDATALOAD PUSH1 0xE0 SHR DUP1 PUSH4 0x53734DC EQ PUSH2 0x4E JUMPI DUP1 PUSH4 0x6FFCE53 EQ PUSH2 0x6C JUMPI DUP1 PUSH4 0x313CE567 EQ PUSH2 0x8A JUMPI DUP1 PUSH4 0xF9F0C340 EQ PUSH2 0xA8 JUMPI JUMPDEST PUSH0 DUP1 REVERT JUMPDEST PUSH2 0x56 PUSH2 0xC6 JUMP JUMPDEST PUSH1 0x40 MLOAD PUSH2 0x63 SWAP2 SWAP1 PUSH2 0x3CA JUMP JUMPDEST PUSH1 0x40 MLOAD DUP1 SWAP2 SUB SWAP1 RETURN JUMPDEST PUSH2 0x74 PUSH2 0xEA JUMP JUMPDEST PUSH1 0x40 MLOAD PUSH2 0x81 SWAP2 SWAP1 PUSH2 0x3FB JUMP JUMPDEST PUSH1 0x40 MLOAD DUP1 SWAP2 SUB SWAP1 RETURN JUMPDEST PUSH2 0x92 PUSH2 0x298 JUMP JUMPDEST PUSH1 0x40 MLOAD PUSH2 0x9F SWAP2 SWAP1 PUSH2 0x42F JUMP JUMPDEST PUSH1 0x40 MLOAD DUP1 SWAP2 SUB SWAP1 RETURN JUMPDEST PUSH2 0xB0 PUSH2 0x367 JUMP JUMPDEST PUSH1 0x40 MLOAD PUSH2 0xBD SWAP2 SWAP1 PUSH2 0x460 JUMP JUMPDEST PUSH1 0x40 MLOAD DUP1 SWAP2 SUB SWAP1 RETURN JUMPDEST PUSH32 0x0 DUP2 JUMP JUMPDEST PUSH0 DUP1 PUSH32 0x0 PUSH20 0xFFFFFFFFFFFFFFFFFFFFFFFFFFFFFFFFFFFFFFFF AND PUSH4 0x84D4783 PUSH32 0x0 PUSH1 0x40 MLOAD DUP3 PUSH4 0xFFFFFFFF AND PUSH1 0xE0 SHL DUP2 MSTORE PUSH1 0x4 ADD PUSH2 0x165 SWAP2 SWAP1 PUSH2 0x460 JUMP JUMPDEST PUSH1 0x20 PUSH1 0x40 MLOAD DUP1 DUP4 SUB DUP2 DUP7 GAS STATICCALL SWAP3 POP POP POP DUP1 ISZERO PUSH2 0x19F JUMPI POP PUSH1 0x40 MLOAD RETURNDATASIZE PUSH1 0x1F NOT PUSH1 0x1F DUP3 ADD AND DUP3 ADD DUP1 PUSH1 0x40 MSTORE POP DUP2 ADD SWAP1 PUSH2 0x19C SWAP2 SWAP1 PUSH2 0x4A7 JUMP JUMPDEST PUSH1 0x1 JUMPDEST PUSH2 0x1DE JUMPI PUSH1 0x40 MLOAD PUSH32 0x8C379A000000000000000000000000000000000000000000000000000000000 DUP2 MSTORE PUSH1 0x4 ADD PUSH2 0x1D5 SWAP1 PUSH2 0x552 JUMP JUMPDEST PUSH1 0x40 MLOAD DUP1 SWAP2 SUB SWAP1 REVERT JUMPDEST DUP1 SWAP2 POP POP PUSH0 DUP2 GT PUSH2 0x224 JUMPI PUSH1 0x40 MLOAD PUSH32 0x8C379A000000000000000000000000000000000000000000000000000000000 DUP2 MSTORE PUSH1 0x4 ADD PUSH2 0x21B SWAP1 PUSH2 0x5E0 JUMP JUMPDEST PUSH1 0x40 MLOAD DUP1 SWAP2 SUB SWAP1 REVERT JUMPDEST PUSH0 PUSH2 0x22D PUSH2 0x298 JUMP JUMPDEST SWAP1 POP PUSH0 DUP2 PUSH1 0xFF AND PUSH1 0xA PUSH2 0x240 SWAP2 SWAP1 PUSH2 0x75A JUMP JUMPDEST DUP4 PUSH2 0x24B SWAP2 SWAP1 PUSH2 0x7D1 JUMP JUMPDEST SWAP1 POP PUSH0 DUP2 GT PUSH2 0x28F JUMPI PUSH1 0x40 MLOAD PUSH32 0x8C379A000000000000000000000000000000000000000000000000000000000 DUP2 MSTORE PUSH1 0x4 ADD PUSH2 0x286 SWAP1 PUSH2 0x871 JUMP JUMPDEST PUSH1 0x40 MLOAD DUP1 SWAP2 SUB SWAP1 REVERT JUMPDEST DUP1 SWAP4 POP POP POP POP SWAP1 JUMP JUMPDEST PUSH0 PUSH32 0x0 PUSH20 0xFFFFFFFFFFFFFFFFFFFFFFFFFFFFFFFFFFFFFFFF AND PUSH4 0x313CE567 PUSH1 0x40 MLOAD DUP2 PUSH4 0xFFFFFFFF AND PUSH1 0xE0 SHL DUP2 MSTORE PUSH1 0x4 ADD PUSH1 0x20 PUSH1 0x40 MLOAD DUP1 DUP4 SUB DUP2 DUP7 GAS STATICCALL SWAP3 POP POP POP DUP1 ISZERO PUSH2 0x321 JUMPI POP PUSH1 0x40 MLOAD RETURNDATASIZE PUSH1 0x1F NOT PUSH1 0x1F DUP3 ADD AND DUP3 ADD DUP1 PUSH1 0x40 MSTORE POP DUP2 ADD SWAP1 PUSH2 0x31E SWAP2 SWAP1 PUSH2 0x8B9 JUMP JUMPDEST PUSH1 0x1 JUMPDEST PUSH2 0x360 JUMPI PUSH1 0x40 MLOAD PUSH32 0x8C379A000000000000000000000000000000000000000000000000000000000 DUP2 MSTORE PUSH1 0x4 ADD PUSH2 0x357 SWAP1 PUSH2 0x954 JUMP JUMPDEST PUSH1 0x40 MLOAD DUP1 SWAP2 SUB SWAP1 REVERT JUMPDEST DUP1 SWAP2 POP POP SWAP1 JUMP JUMPDEST PUSH32 0x0 DUP2 JUMP JUMPDEST PUSH0 PUSH20 0xFFFFFFFFFFFFFFFFFFFFFFFFFFFFFFFFFFFFFFFF DUP3 AND SWAP1 POP SWAP2 SWAP1 POP JUMP JUMPDEST PUSH0 PUSH2 0x3B4 DUP3 PUSH2 0x38B JUMP JUMPDEST SWAP1 POP SWAP2 SWAP1 POP JUMP JUMPDEST PUSH2 0x3C4 DUP2 PUSH2 0x3AA JUMP JUMPDEST DUP3 MSTORE POP POP JUMP JUMPDEST PUSH0 PUSH1 0x20 DUP3 ADD SWAP1 POP PUSH2 0x3DD PUSH0 DUP4 ADD DUP5 PUSH2 0x3BB JUMP JUMPDEST SWAP3 SWAP2 POP POP JUMP JUMPDEST PUSH0 DUP2 SWAP1 POP SWAP2 SWAP1 POP JUMP JUMPDEST PUSH2 0x3F5 DUP2 PUSH2 0x3E3 JUMP JUMPDEST DUP3 MSTORE POP POP JUMP JUMPDEST PUSH0 PUSH1 0x20 DUP3 ADD SWAP1 POP PUSH2 0x40E PUSH0 DUP4 ADD DUP5 PUSH2 0x3EC JUMP JUMPDEST SWAP3 SWAP2 POP POP JUMP JUMPDEST PUSH0 PUSH1 0xFF DUP3 AND SWAP1 POP SWAP2 SWAP1 POP JUMP JUMPDEST PUSH2 0x429 DUP2 PUSH2 0x414 JUMP JUMPDEST DUP3 MSTORE POP POP JUMP JUMPDEST PUSH0 PUSH1 0x20 DUP3 ADD SWAP1 POP PUSH2 0x442 PUSH0 DUP4 ADD DUP5 PUSH2 0x420 JUMP JUMPDEST SWAP3 SWAP2 POP POP JUMP JUMPDEST PUSH0 DUP2 SWAP1 POP SWAP2 SWAP1 POP JUMP JUMPDEST PUSH2 0x45A DUP2 PUSH2 0x448 JUMP JUMPDEST DUP3 MSTORE POP POP JUMP JUMPDEST PUSH0 PUSH1 0x20 DUP3 ADD SWAP1 POP PUSH2 0x473 PUSH0 DUP4 ADD DUP5 PUSH2 0x451 JUMP JUMPDEST SWAP3 SWAP2 POP POP JUMP JUMPDEST PUSH0 DUP1 REVERT JUMPDEST PUSH2 0x486 DUP2 PUSH2 0x3E3 JUMP JUMPDEST DUP2 EQ PUSH2 0x490 JUMPI PUSH0 DUP1 REVERT JUMPDEST POP JUMP JUMPDEST PUSH0 DUP2 MLOAD SWAP1 POP PUSH2 0x4A1 DUP2 PUSH2 0x47D JUMP JUMPDEST SWAP3 SWAP2 POP POP JUMP JUMPDEST PUSH0 PUSH1 0x20 DUP3 DUP5 SUB SLT ISZERO PUSH2 0x4BC JUMPI PUSH2 0x4BB PUSH2 0x479 JUMP JUMPDEST JUMPDEST PUSH0 PUSH2 0x4C9 DUP5 DUP3 DUP6 ADD PUSH2 0x493 JUMP JUMPDEST SWAP2 POP POP SWAP3 SWAP2 POP POP JUMP JUMPDEST PUSH0 DUP3 DUP3 MSTORE PUSH1 0x20 DUP3 ADD SWAP1 POP SWAP3 SWAP2 POP POP JUMP JUMPDEST PUSH32 0x5472656173757279537761703A204661696C656420746F206665746368207072 PUSH0 DUP3 ADD MSTORE PUSH32 0x6963652066726F6D206F7261636C650000000000000000000000000000000000 PUSH1 0x20 DUP3 ADD MSTORE POP JUMP JUMPDEST PUSH0 PUSH2 0x53C PUSH1 0x2F DUP4 PUSH2 0x4D2 JUMP JUMPDEST SWAP2 POP PUSH2 0x547 DUP3 PUSH2 0x4E2 JUMP JUMPDEST PUSH1 0x40 DUP3 ADD SWAP1 POP SWAP2 SWAP1 POP JUMP JUMPDEST PUSH0 PUSH1 0x20 DUP3 ADD SWAP1 POP DUP2 DUP2 SUB PUSH0 DUP4 ADD MSTORE PUSH2 0x569 DUP2 PUSH2 0x530 JUMP JUMPDEST SWAP1 POP SWAP2 SWAP1 POP JUMP JUMPDEST PUSH32 0x5472656173757279537761703A204F7261636C652072657475726E656420696E PUSH0 DUP3 ADD MSTORE PUSH32 0x76616C6964207072696365000000000000000000000000000000000000000000 PUSH1 0x20 DUP3 ADD MSTORE POP JUMP JUMPDEST PUSH0 PUSH2 0x5CA PUSH1 0x2B DUP4 PUSH2 0x4D2 JUMP JUMPDEST SWAP2 POP PUSH2 0x5D5 DUP3 PUSH2 0x570 JUMP JUMPDEST PUSH1 0x40 DUP3 ADD SWAP1 POP SWAP2 SWAP1 POP JUMP JUMPDEST PUSH0 PUSH1 0x20 DUP3 ADD SWAP1 POP DUP2 DUP2 SUB PUSH0 DUP4 ADD MSTORE PUSH2 0x5F7 DUP2 PUSH2 0x5BE JUMP JUMPDEST SWAP1 POP SWAP2 SWAP1 POP JUMP JUMPDEST PUSH32 0x4E487B7100000000000000000000000000000000000000000000000000000000 PUSH0 MSTORE PUSH1 0x11 PUSH1 0x4 MSTORE PUSH1 0x24 PUSH0 REVERT JUMPDEST PUSH0 DUP2 PUSH1 0x1 SHR SWAP1 POP SWAP2 SWAP1 POP JUMP JUMPDEST PUSH0 DUP1 DUP3 SWAP2 POP DUP4 SWAP1 POP JUMPDEST PUSH1 0x1 DUP6 GT ISZERO PUSH2 0x680 JUMPI DUP1 DUP7 DIV DUP2 GT ISZERO PUSH2 0x65C JUMPI PUSH2 0x65B PUSH2 0x5FE JUMP JUMPDEST JUMPDEST PUSH1 0x1 DUP6 AND ISZERO PUSH2 0x66B JUMPI DUP1 DUP3 MUL SWAP2 POP JUMPDEST DUP1 DUP2 MUL SWAP1 POP PUSH2 0x679 DUP6 PUSH2 0x62B JUMP JUMPDEST SWAP5 POP PUSH2 0x640 JUMP JUMPDEST SWAP5 POP SWAP5 SWAP3 POP POP POP JUMP JUMPDEST PUSH0 DUP3 PUSH2 0x698 JUMPI PUSH1 0x1 SWAP1 POP PUSH2 0x753 JUMP JUMPDEST DUP2 PUSH2 0x6A5 JUMPI PUSH0 SWAP1 POP PUSH2 0x753 JUMP JUMPDEST DUP2 PUSH1 0x1 DUP2 EQ PUSH2 0x6BB JUMPI PUSH1 0x2 DUP2 EQ PUSH2 0x6C5 JUMPI PUSH2 0x6F4 JUMP JUMPDEST PUSH1 0x1 SWAP2 POP POP PUSH2 0x753 JUMP JUMPDEST PUSH1 0xFF DUP5 GT ISZERO PUSH2 0x6D7 JUMPI PUSH2 0x6D6 PUSH2 0x5FE JUMP JUMPDEST JUMPDEST DUP4 PUSH1 0x2 EXP SWAP2 POP DUP5 DUP3 GT ISZERO PUSH2 0x6EE JUMPI PUSH2 0x6ED PUSH2 0x5FE JUMP JUMPDEST JUMPDEST POP PUSH2 0x753 JUMP JUMPDEST POP PUSH1 0x20 DUP4 LT PUSH2 0x133 DUP4 LT AND PUSH1 0x4E DUP5 LT PUSH1 0xB DUP5 LT AND OR ISZERO PUSH2 0x729 JUMPI DUP3 DUP3 EXP SWAP1 POP DUP4 DUP2 GT ISZERO PUSH2 0x724 JUMPI PUSH2 0x723 PUSH2 0x5FE JUMP JUMPDEST JUMPDEST PUSH2 0x753 JUMP JUMPDEST PUSH2 0x736 DUP5 DUP5 DUP5 PUSH1 0x1 PUSH2 0x637 JUMP JUMPDEST SWAP3 POP SWAP1 POP DUP2 DUP5 DIV DUP2 GT ISZERO PUSH2 0x74D JUMPI PUSH2 0x74C PUSH2 0x5FE JUMP JUMPDEST JUMPDEST DUP2 DUP2 MUL SWAP1 POP JUMPDEST SWAP4 SWAP3 POP POP POP JUMP JUMPDEST PUSH0 PUSH2 0x764 DUP3 PUSH2 0x3E3 JUMP JUMPDEST SWAP2 POP PUSH2 0x76F DUP4 PUSH2 0x3E3 JUMP JUMPDEST SWAP3 POP PUSH2 0x79C PUSH32 0xFFFFFFFFFFFFFFFFFFFFFFFFFFFFFFFFFFFFFFFFFFFFFFFFFFFFFFFFFFFFFFFF DUP5 DUP5 PUSH2 0x689 JUMP JUMPDEST SWAP1 POP SWAP3 SWAP2 POP POP JUMP JUMPDEST PUSH32 0x4E487B7100000000000000000000000000000000000000000000000000000000 PUSH0 MSTORE PUSH1 0x12 PUSH1 0x4 MSTORE PUSH1 0x24 PUSH0 REVERT JUMPDEST PUSH0 PUSH2 0x7DB DUP3 PUSH2 0x3E3 JUMP JUMPDEST SWAP2 POP PUSH2 0x7E6 DUP4 PUSH2 0x3E3 JUMP JUMPDEST SWAP3 POP DUP3 PUSH2 0x7F6 JUMPI PUSH2 0x7F5 PUSH2 0x7A4 JUMP JUMPDEST JUMPDEST DUP3 DUP3 DIV SWAP1 POP SWAP3 SWAP2 POP POP JUMP JUMPDEST PUSH32 0x5472656173757279537761703A2050726963652061646A7573746D656E742072 PUSH0 DUP3 ADD MSTORE PUSH32 0x6573756C74656420696E207A65726F0000000000000000000000000000000000 PUSH1 0x20 DUP3 ADD MSTORE POP JUMP JUMPDEST PUSH0 PUSH2 0x85B PUSH1 0x2F DUP4 PUSH2 0x4D2 JUMP JUMPDEST SWAP2 POP PUSH2 0x866 DUP3 PUSH2 0x801 JUMP JUMPDEST PUSH1 0x40 DUP3 ADD SWAP1 POP SWAP2 SWAP1 POP JUMP JUMPDEST PUSH0 PUSH1 0x20 DUP3 ADD SWAP1 POP DUP2 DUP2 SUB PUSH0 DUP4 ADD MSTORE PUSH2 0x888 DUP2 PUSH2 0x84F JUMP JUMPDEST SWAP1 POP SWAP2 SWAP1 POP JUMP JUMPDEST PUSH2 0x898 DUP2 PUSH2 0x414 JUMP JUMPDEST DUP2 EQ PUSH2 0x8A2 JUMPI PUSH0 DUP1 REVERT JUMPDEST POP JUMP JUMPDEST PUSH0 DUP2 MLOAD SWAP1 POP PUSH2 0x8B3 DUP2 PUSH2 0x88F JUMP JUMPDEST SWAP3 SWAP2 POP POP JUMP JUMPDEST PUSH0 PUSH1 0x20 DUP3 DUP5 SUB SLT ISZERO PUSH2 0x8CE JUMPI PUSH2 0x8CD PUSH2 0x479 JUMP JUMPDEST JUMPDEST PUSH0 PUSH2 0x8DB DUP5 DUP3 DUP6 ADD PUSH2 0x8A5 JUMP JUMPDEST SWAP2 POP POP SWAP3 SWAP2 POP POP JUMP JUMPDEST PUSH32 0x5472656173757279537761703A204661696C656420746F206665746368206465 PUSH0 DUP3 ADD MSTORE PUSH32 0x63696D616C732066726F6D206F7261636C650000000000000000000000000000 PUSH1 0x20 DUP3 ADD MSTORE POP JUMP JUMPDEST PUSH0 PUSH2 0x93E PUSH1 0x32 DUP4 PUSH2 0x4D2 JUMP JUMPDEST SWAP2 POP PUSH2 0x949 DUP3 PUSH2 0x8E4 JUMP JUMPDEST PUSH1 0x40 DUP3 ADD SWAP1 POP SWAP2 SWAP1 POP JUMP JUMPDEST PUSH0 PUSH1 0x20 DUP3 ADD SWAP1 POP DUP2 DUP2 SUB PUSH0 DUP4 ADD MSTORE PUSH2 0x96B DUP2 PUSH2 0x932 JUMP JUMPDEST SWAP1 POP SWAP2 SWAP1 POP JUMP INVALID LOG2 PUSH5 0x6970667358 0x22 SLT KECCAK256 CODESIZE 0xBE DUP6 SWAP10 SWAP6 EQ 0xEE 0xAB BLOCKHASH MSTORE 0x2A PUSH10 0x1A1D68B2E59F6EB6DED5 NOT PUSH25 0x7DE3CDED787E2CBF64736F6C634300081A0033000000000000 "
				},
				"gasEstimates": {
					"creation": {
						"codeDepositCost": "494400",
						"executionCost": "infinite",
						"totalCost": "infinite"
					},
					"external": {
						"BTC_ASSET_ID()": "infinite",
						"decimals()": "infinite",
						"getTokenValue()": "infinite",
						"storkOracle()": "infinite"
					}
				},
				"methodIdentifiers": {
					"BTC_ASSET_ID()": "f9f0c340",
					"decimals()": "313ce567",
					"getTokenValue()": "06ffce53",
					"storkOracle()": "053734dc"
				}
			},
			"storageLayout": {
				"storage": [],
				"types": null
			},
			"userdoc": {
				"kind": "user",
				"methods": {},
				"version": 1
			}
		}
	}
}